:100000000C945B000C9499000C9499000C9499004A
:100010000C9499000C9499000C9499000C949900FC
:100020000C9499000C9499000C9499000C946D0315
:100030000C9493030C9499000C9499000C949900DF
:100040000C9499000C9499000C94F8010C9499006C
:100050000C9499000C9499000C9499000C949900BC
:100060000C9499000C949900464154414C204552FF
:10007000524F523A204241444953525F766563746D
:100080002063616C6C65642C20756E70726F6365A3
:100090007373656420496E746572727570742E0A8C
:1000A00053544F5020457865637574696F6E2E0AFE
:1000B0000000F7003401832D8093730684B780938A
:1000C000740614BE0FB6F894A895809160008861FC
:1000D00080936000109260000FBE11241FBECFEF0E
:1000E000D8E0DEBFCDBF12E0A0E0B1E0E0E2F4E294
:1000F00002C005900D92A031B107D9F726E0A0E12A
:10010000B2E001C01D92A337B207E1F710E0CBE5E2
:10011000D0E004C02197FE010E94E20EC935D1074C
:10012000C9F70E949B000C940E120E94F2000C94DE
:100130000E120C94FC0B0E94B9030C945B0561E059
:1001400070E080910201909103010E94FD0060E047
:1001500070E080910001909101010E94FD0040E853
:1001600055E260E070E084E192E00C9440018091FF
:100170000001909101010E94140190931302809359
:10018000120220911002309111028217930791F010
:100190008130910579F461E070E0809102019091E5
:1001A00003010E940E016AE371E084E192E00E9483
:1001B00074010AC0892B81F460E070E08091020133
:1001C000909103010E940E018091120290911302FE
:1001D000909311028093100264E670E080E090E05A
:1001E0000C9422010E949F000E94B700FDCF60E0A6
:1001F00070E084E192E00C943C016115710529F0F6
:100200006230710521F462E003C060E001C063E088
:10021000FC01E55BFE4F80810C943602855B9E4FAE
:10022000FC0180810C94AE02855B9E4FFC018081B5
:100230000E946F0221E030E0892B11F420E030E0D1
:10024000C90108959B01AC01A8EEB3E00E94D70E4E
:1002500022E096958795779567952A95D1F720E0C6
:1002600030E0A9010C94830B60E070E08EE592E031
:100270000C943C010C940E05FC017183608308957D
:100280000F931F93FC01EE5BFF4F9C012E5F3F4FCE
:100290003183208320E430E033832283158214826B
:1002A000178216828F012AE331E0FC01808191815F
:1002B0000E94A2011F910F9108950F931F93CF9356
:1002C000DF938C01EB01CB010E94F70EAC01BE0164
:1002D000F801808191810E94E901CE01DF91CF91E7
:1002E0001F910F910C94F70E0F931F93CF93DF93F1
:1002F000EC010E945D018C016FE571E0CE010E946E
:100300005D01C8010296DF91CF911F910F91089571
:100310000FB6802DF894807890E0089578940FB609
:10032000802D807890E00895FF920F93F82E0FB7FC
:10033000087FF02AFFBE0F91FF9008958091A802D8
:1003400090E008950F931F93CF93DF93E901892BDA
:10035000C9F53093AA022093A9021093AC0200932E
:10036000AB021092C1001092C00086E08093C200E0
:10037000DB01CA0180589B47A14EBF4F23E0880F85
:10038000991FAA1FBB1F2A95D1F79A01AB0164E000
:10039000220F331F441F551F6A95D1F7BC01CD01B1
:1003A0000E94B50E215031093093C5002093C4003E
:1003B000CD2B11F088E901C088E08093C10080E076
:1003C00090E002C08FEF9FEFDF91CF911F910F91CF
:1003D0000895FB01460F571FE417F50741F0809180
:1003E000C00085FFFCCF81918093C600F5CF0895B2
:1003F0001F920F920FB60F9211242F933F934F939A
:100400005F936F937F938F939F93AF93BF93EF937C
:10041000FF9381E08093A8026091C600E091A90259
:10042000F091AA028091AB029091AC020995809163
:10043000190390911A03892B31F00E947F051092C5
:10044000A8020E94CB0C1092A802FF91EF91BF91DD
:10045000AF919F918F917F916F915F914F913F915C
:100460002F910F900FBE0F901F901895982F9F708F
:1004700021E030E001C0220F9A95EAF76230D9F00E
:10048000633079F0611128C082958F7093E0899F65
:10049000F001112481A12095822381A382A1282328
:1004A00017C082958F7093E0899FF001112481A17C
:1004B000282B21A30EC082958F7093E0899FF001B5
:1004C000112481A1922F9095892381A382A1282BA9
:1004D00022A380E090E008958FEF9FEF0895E82F2A
:1004E000E295EF7063E0E69FF001112420A18F7088
:1004F00041E050E0BA0102C0660F771F8A95E2F72B
:10050000CB0130E0822393230895E82FE295EF702A
:1005100093E0E99FF001112432A1282F2F7081E090
:1005200090E001C0880F2A95EAF7832B82A30895F3
:10053000E82FE295EF7093E0E99FF001112432A1DA
:10054000282F2F7081E090E002C0880F991F2A9514
:10055000E2F780959095832382A30895672B11F08D
:100560000C9485020C949802BC0181E08093A8024F
:10057000E0910601F09107019081AB014F5F5F4F61
:1005800021E030E001C0220F4A95EAF720952923A7
:100590002083E0910A01F0910B0180910C01909170
:1005A0000D0109958091190390911A03892B31F05F
:1005B0000E947F051092A8020E94CB0C1092A80204
:1005C00008958F929F92AF92BF92CF92DF92EF9257
:1005D000FF920F931F93892BD9F4E0E7F1E080E0BD
:1005E000C12C94E2D92E94EFE92EF12C460157014B
:1005F000019004C0B694A794979487940A94D2F774
:100600008F5F84169506A606B70629F0853071F728
:100610008FEF9FEF16C0E0910401F0910501108269
:10062000118212821582148230930B0120930A01E9
:1006300010930D0100930C0180930E01818380E0E3
:1006400090E01F910F91FF90EF90DF90CF90BF90BF
:10065000AF909F908F900895623071055CF52CE00B
:10066000289FF001299FF00D1124EC5FFE4F80813F
:100670009181DB011496AA0FBB1FA80FB91F119619
:100680005C934E93A481B5812C916F5F7F4F81E085
:1006900090E001C0880F6A95EAF7982F9095922311
:1006A0009C930280F381E02D9081892B808381E0EF
:1006B00090E008958FEF9FEF08952CE0AC01249F08
:1006C000C001259F900D1124FC01EC5FFE4F0190AD
:1006D000F081E02D8481958108951F920F920FB6CD
:1006E0000F9211242F933F934F935F936F937F93B8
:1006F0008F939F93AF93BF93EF93FF9380E090E02E
:100700000E94B402FF91EF91BF91AF919F918F91A1
:100710007F916F915F914F913F912F910F900FBEFD
:100720000F901F9018951F920F920FB60F921124E1
:100730002F933F934F935F936F937F938F939F93E9
:10074000AF93BF93EF93FF9381E090E00E94B402D8
:10075000FF91EF91BF91AF919F918F917F916F9199
:100760005F914F913F912F910F900FBE0F901F906F
:100770001895E1E6F0E080E8808310820E944C0D3D
:100780000E94EE0B0E945C0D0C948E010895EB010B
:100790002091AD023091AE02232B71F521E030E0C3
:1007A0003093AE022093AD02833091F40EB6202D2B
:1007B0000DB6802D90E0922B9F938F9385E791E06B
:1007C0009F938F930E94000F0F900F900F900F90A8
:1007D000DF93CF938CE891E09F938F930E94000F5B
:1007E00088EA91E09F938F930E94000F0F900F90E3
:1007F0000F900F900F900F900E9488010E94C603E7
:100800000E94EA0B10921A0310921903A091D502CC
:10081000B091D6022091AF023091B00280E090E01A
:1008200020FD04C0369527950196FACF880F991FB1
:10083000FC01ED54FD4F0190F081E02D0190F0811D
:10084000E02D3697AE17BF07C9F0109741F012960A
:100850008C9112978A3019F48BE012968C938AE06F
:100860008283848195819093D4028093D302F09304
:10087000D602E093D50281E090E0089580E090E018
:1008800008950F931F93CF93DF93FC0182816A3009
:10089000E0F18A3008F080C09F012A5F3F4F8381DA
:1008A00090E0880F991FDC01AD54BD4FCD91DC91D4
:1008B0001197209751F048815981578346830D90B5
:1008C000BC91A02D2D933C9302C037832683DC017D
:1008D000AD54BD4F2D933C9381E090E0038002C066
:1008E000880F991F0A94E2F7092E000CAA0BBB0B84
:1008F0000091AF021091B0022091B1023091B2028A
:10090000802B912BA22BB32B3FC08A3008F444C01C
:10091000A381B0E0AA0FBB1FAD54BD4FCD91DC91B8
:100920001197209769F088819981C817D90719F420
:100930001D921C9205C0DC018D919C919983888346
:100940002381A22FB0E0AA0FBB1FAD54BD4F8D91E4
:100950009C91892B09F581E090E002C0880F991FD6
:100960002A95E2F780959095092E000CAA0BBB0BF7
:100970000091AF021091B0022091B1023091B20209
:1009800080239123A223B3238093AF029093B002DC
:10099000A093B102B093B2026283DF91CF911F9115
:1009A0000F910895E091D502F091D60222812A306C
:1009B00028F0238130E08217930768F40E949E019B
:1009C000892B39F081E090E090931A03809319030A
:1009D00008950C94650C08950E948801E091D3025B
:1009E000F091D402EE0FFF1FE952FD4F11821082E9
:1009F00080911B0390911C03019790931C0380939B
:100A00001B0360E08091D5029091D6020E944104C0
:100A10001092D6021092D5020E94610CFC01468110
:100A200057818281938148175907C9F42481358100
:100A3000A081B181A20FB31F8C91DA011197B78306
:100A4000A683AB2B19F41582148207C02F5F3F4F8A
:100A50003583248342175307B1F390E002C08FEF30
:100A60009FEF4481558126813781D9011196B78343
:100A7000A683240F351F428153812417350710F0B8
:100A8000241B350B40815181FA01E20FF31F608373
:100A900008950E94250D88EC91E09F938F930E940A
:100AA000000F0E94F2000F900F9080E090E00895F8
:100AB0000E94ED0BFDCF0E948801C0901001D090E4
:100AC0001101E12CF12C08E515E02CE030E04FE0BD
:100AD00060E870E08DE193E00E94BB05C0901201D8
:100AE000D090130109E415E02CE030E047E060E825
:100AF00072E08DE993E00E94BB050E94610C0E94A8
:100B00008801E091D502F091D60222812A3070F05E
:100B1000E381F0E0EE0FFF1FED54FD4FA081B181A6
:100B2000109721F02D913C91318320830E949401F4
:100B30000C94650CFB0122812A3028F066EB71E0F1
:100B400083E00E94C7036381AF014A5F5F4FDC010E
:100B50002D913C912115310541F0D901169713963D
:100B60007C91671710F0C901F2CF37832683FC010F
:100B70005183408308952F923F924F925F926F92DC
:100B80007F928F929F92AF92BF92CF92DF92EF921D
:100B9000FF920F931F93CF93DF9300D000D0CDB778
:100BA000DEB740319CF54B013AE1831A9108DC0134
:100BB000A80DB91DBC83AB83FC0123FF09C0AB8129
:100BC000BC81EA17FB0730F4F183E0833296F7CF5C
:100BD000918380831601370158012A8349832B01B1
:100BE0007C010E9488016C01E9EDF2E001E010E077
:100BF00081919191892B61F00F5F1F4F0132110597
:100C0000B9F7C6010E9494018FEB5CC084EE5AC014
:100C1000F801EE0FFF1FE952FD4F8B819C819183FC
:100C20008083DC0115961C930E9314979401A70101
:100C3000B301C5010E94340CEB81FC819183808358
:100C4000F58AE48A518E408E378A268A2981238349
:100C500012821782168211861086138612861586D6
:100C60001486178616868FEF9FEF918B808B138AE1
:100C7000128A80911B0390911C03019690931C0390
:100C800080931B033A8130FF06C061E08B819C8119
:100C90000E94410412C06BE08B819C810E94410440
:100CA000FA81F2FD0AC0C6010E9494012981822FB7
:100CB000220F990B0E94D20403C0C6010E94940126
:100CC000C80101C09FEF0F900F900F900F90DF9120
:100CD000CF911F910F91FF90EF90DF90CF90BF9039
:100CE000AF909F908F907F906F905F904F903F90CC
:100CF0002F900895CF92DF92EF92FF92C09023063B
:100D0000D0902406E0902506F090260680E090E042
:100D10000E945D03BC018091230690912406A0915E
:100D20002506B0912606C816D906EA06FB0631F755
:100D3000CB01A0E0B0E0BC01CD016C297D298E295A
:100D40009F29FF90EF90DF90CF9008958F929F9210
:100D5000AF92BF92CF92DF92EF92FF920F931F93C9
:100D6000CF93DF938C01EB010E947A064B015C016B
:100D7000C0902706D0902806E0902906F0902A0619
:100D80000E947A06681579058A059B0568F3F801C3
:100D90006083718382839383C882D982EA82FB82D3
:100DA000DF91CF911F910F91FF90EF90DF90CF9047
:100DB000BF90AF909F908F90089520912B06309117
:100DC0002C06232B39F4AB0160E070E080E090E06A
:100DD0000C942C0308950F931F93CF93DF93DC01A2
:100DE000E0911D06F0911E06CDE1D6E0309741F16D
:100DF000068117812085318516964D915D916D9103
:100E00007C911997041715072607370728F4EF0177
:100E10000190F081E02DEACF041715072607370768
:100E200079F4028113812481358112964D915D916F
:100E30006D917C911597401751076207730738F73A
:100E40001196FC93EE93B983A883DF91CF911F9104
:100E50000F9108950F931F93CF93DF9380912306F3
:100E600090912406A0912506B091260611968093B4
:100E7000230690932406A0932506B093260680911E
:100E8000230690912406A0912506B0912606892B71
:100E90008A2B8B2B99F48091270690912806A0919C
:100EA0002906B0912A060196A11DB11D809327063F
:100EB00090932806A0932906B0932A06E0911F0676
:100EC000F0912006F0932206E0932106109220066E
:100ED00010921F06A0911D06B0911E06ED0180E044
:100EE00090E0209781F1409127065091280660916B
:100EF000290670912A060E811F81288539854017A1
:100F000051076207730738F4D0931E06C0931D067D
:100F10000097F1F46DC000912306109124062091F2
:100F20002506309126064A815B816C817D814427AC
:100F30005527401751076207730731F7CE01099013
:100F4000D881C02DCECF10921E0610921D06E0CF84
:100F5000EC0119821882309709F446C0109791F07D
:100F6000028113812481358112964D915D916D919D
:100F70007C911597401751076207730718F49A2F51
:100F80008B2F02C09E2F8F2FC92F282FD22F019079
:100F9000F081E02D0D90BC91A02D309719F4B9830C
:100FA000A8831DC0109719F4F983E88318C0028143
:100FB00013812481358112964D915D916D917C91C3
:100FC0001597401751076207730718F43A2F2B2F14
:100FD00002C03E2F2F2F38832983C32FD7CF909362
:100FE00021068093220604C0B0932206A093210616
:100FF000DF91CF911F910F9108958F929F92AF92A1
:10100000BF92CF92DF92EF92FF9281E090E09093B7
:101010002C0680932B068091210690912206892B25
:1010200049F40E942A0780E090E00E945D03019647
:10103000D1F3B4C080E090E00E945D036C01E12C2C
:10104000F12C3AC0AA24BB2488159905AA05BB0532
:1010500098F4E0912106F091220682809380A4808A
:10106000B58080E090E00E945D03A0E0B0E08C15C8
:101070009D05AE05BF0530F7A0912106B09122066F
:101080008D919C9111979093220680932106129640
:101090001D921D921D921C92159716961D921D92DF
:1010A0001D921C9219971A96ED91FC911B971C9614
:1010B0008D919C911D970995E0912106F091220652
:1010C000309789F480E090E00E945D03A0E0B0E0FA
:1010D0004496A11DB11D8C159D05AE05BF0598F563
:1010E0000E942A0724C082809380A480B58080E07B
:1010F00090E00E945D03A0E0B0E08C159D05AE0578
:10110000BF0508F4A6CFB501A40166277727841789
:101110009507A607B70708F09CCF481B590B6A0B29
:101120007B0B443151056105710560F692CF80E07B
:1011300090E00E945D03A0E0B0E0C816D906EA0680
:10114000FB06A8F32BC0E0912106F0912206309710
:10115000B9F082809380A480B58084E1881A9108D8
:10116000A108B1080E947A06DC01CB014496A11DBA
:10117000B11D88169906AA06BB0608F49DCF2FC09C
:1011800080E090E00E945D034C01A12CB12C8C14F6
:101190009D04AE04BF0430F40E942A07C12CD12C58
:1011A00076018ACFD501C4014496A11DB11DAA279D
:1011B000BB2788159905AA05BB0560F480E090E07F
:1011C0000E945D03A0E0B0E088159905AA05BB0563
:1011D000A8F7E2CF88248A94982CA12CB12C1092E5
:1011E0002C0610922B06C501B401FF90EF90DF9002
:1011F000CF90BF90AF909F908F900C94DD06FC0134
:10120000A0912106B0912206A817B90719F0A1E212
:10121000B6E01DC0ED91FC91F0932206E09321060B
:10122000309759F082819381A481B581BC01CD01B1
:10123000645171098109910904C06FEF7FEF80E06B
:1012400090E00C94DD06E817F907A9F0DC018D9118
:101250009C9111970097B9F7AFE1B6E08D919C9101
:101260001197009729F0E817F90729F0DC01F6CF6C
:10127000ADE1B6E009C0808191818D939C93089582
:10128000E817F907C1F3DC018D919C911197009744
:10129000B9F708950F931F9300E010E02DEF37E0AA
:1012A00040E950ED63E070E080E090E00E94E102F0
:1012B0006FEF7FEFCB011F910F910C94DD064F92E2
:1012C0005F926F927F928F929F92AF92BF92CF92D6
:1012D000DF92EF92FF920F931F93CF93DF93EC0176
:1012E0006A017B010E947A064B015C011982188217
:1012F000D701C60188199909AA09BB098997A105CF
:10130000B105F0F4EE24FF2480E090E00E945D033C
:10131000A0E0B0E0C816D906EA06FB06A8F380E014
:1013200090E00E945D03A0E0B0E08C159D05AE0545
:10133000BF05A8F3EA85FB858C859D850995A0C02E
:101340000E9488018C018A819B81AC81BD81892B9F
:101350008A2B8B2B09F090C08E819F81A885B9853F
:10136000892B8A2B8B2B09F087C0CA82DB82EC8207
:10137000FD824090270650902806609029067090C4
:101380002A06C701B60164517109810991096815DE
:1013900079058A059B0528F42FEF421A520A620A42
:1013A000720A4E825F826886798640902706509046
:1013B00028066090290670902A062E813F81488574
:1013C0005985421653066406750688F02091230657
:1013D0003091240640912506509126062B013C01B0
:1013E00044245524241535054605570521F0CE0122
:1013F0000E94EB063DC0AA24BB2486169706A806C9
:10140000B90618F4A1E2B6E021C0AFE1B6E0ED9173
:10141000FC911197309759F0428153816481758115
:10142000C416D506E606F70610F0DF01F0CFF98303
:10143000E883CD93DC931CC082809380A480B58028
:10144000C814D904EA04FB0430F0DF01ED91FC91EB
:101450001197309789F7F983E883CD93DC93209136
:10146000210630912206C217D30711F40E94DD062F
:10147000C8010E94940104C0CE010E94FF0875CFEC
:1014800080E090E0DF91CF911F910F91FF90EF905E
:10149000DF90CF90BF90AF909F908F907F906F9094
:1014A0005F904F9008950F931F93CF93DF93EC01BC
:1014B0000E9488018C018A819B81AC81BD81892B2E
:1014C0008A2B8B2B79F48E819F81A885B985892BF6
:1014D0008A2B8B2B39F4C801DF91CF911F910F918B
:1014E0000C949401CE010E94FF08F5CF8F929F9239
:1014F000AF92BF92CF92DF92EF92FF92CF93DF93A2
:10150000FC0122853385232B09F447C06A017B0146
:10151000EC010E94530AF8E2CF16D104E104F10471
:1015200038F580E090E00E945D034C01A12CB12CC5
:1015300080E090E00E945D03A0E0B0E08819990986
:10154000AA09BB09AA27BB278C159D05AE05BF05B7
:1015500078F3EA85FB858C859D85DF91CF91FF909F
:10156000EF90DF90CF90BF90AF909F908F900994B5
:101570000E947A06AB01BC014C0D5D1D6E1D7F1DE6
:10158000CE01DF91CF91FF90EF90DF90CF90BF9091
:10159000AF909F908F900C945F09DF91CF91FF9057
:1015A000EF90DF90CF90BF90AF909F908F90089575
:1015B0004F925F926F927F928F929F92AF92BF9263
:1015C000EF92FF920F931F93CF93DF9301151105B5
:1015D0002105310581F4DF91CF911F910F91FF908B
:1015E000EF90BF90AF909F908F907F906F905F90A3
:1015F0004F900C94760A280139014A015B01EC01F5
:101600000E9488017C018A819B81AC81BD81892BEC
:101610008A2B8B2B09F044C08E819F81A885B985C8
:10162000892B8A2B8B2BE1F5BE016A5F7F4FCE01A0
:1016300002960E94A6068A819B81AC81BD81880D9D
:10164000991DAA1DBB1D8A839B83AC83BD830E811C
:101650001F8128853985040D151D261D371D881508
:101660009905AA05BB0520F40F5F1F4F2F4F3F4F71
:101670000E831F8328873987CE010E94EB06C7019E
:10168000DF91CF911F910F91FF90EF90BF90AF909E
:101690009F908F907F906F905F904F900C949401EB
:1016A000CE010E94FF08C0CF0C94A70D8F929F928D
:1016B000AF92BF92CF92DF92EF92FF926B017C01CB
:1016C00080E090E00E945D034C01A12CB12CEE243F
:1016D000FF2480E090E00E945D03A0E0B0E0881964
:1016E0009909AA09BB09AA27BB278C159D05AE0538
:1016F000BF0578F3FF90EF90DF90CF90BF90AF9051
:101700009F908F9008954F925F926F927F928F92E9
:101710009F92AF92BF92EF92FF920F931F93CF933E
:10172000DF93CDB7DEB760970FB6F894DEBF0FBE7C
:10173000CDBF4B015C0129013A010E949E01892B1A
:1017400071F045284628472829F066EB71E083E0D0
:101750000E94C703C501B4010E94560B26C0188A17
:101760001F8684E59BE09C878B877E018FE0E80ED7
:10177000F11CFE86ED861F82188619861A861B824A
:101780001C821D821E8261E070E0C7010E94620D12
:1017900093018201B501A401CE0101960E94D80AED
:1017A00061E070E0C7010E94620D60960FB6F89488
:1017B000DEBF0FBECDBFDF91CF911F910F91FF9084
:1017C000EF90BF90AF909F908F907F906F905F90C1
:1017D0004F9008950E948801FFCF0895A8950FB6F5
:1017E000F894A895809160008861809360001092C1
:1017F00060000FBE0C940C0E1F920F920FB60F924A
:1018000011242D9A68E670E080E00E94C7030E94D0
:101810008E01A091D502B091D602CD91CDBFDD91C0
:10182000DEBFFF91EF91DF91CF91BF91AF919F917B
:101830008F917F916F915F914F913F912F911F9168
:101840000F91FF90EF90DF90CF90BF90AF909F905F
:101850008F907F906F905F904F903F902F901F9050
:101860000F900FBE0F900895240F351FF901319787
:101870004FEA408331974EEF40834CEE54E031976E
:10188000408331975083319780833197908331978C
:101890001082319780E8808331971082C9014F9779
:1018A0001292E817F907E1F7F901B09760833197D1
:1018B00070838AE182938F5F8032E1F7C901889754
:1018C00008950E9402040E94070C0E949E01892B29
:1018D00009F05AC00F920FB6F8940F921F9211247C
:1018E0002F923F924F925F926F927F928F929F9230
:1018F000AF92BF92CF92DF92EF92FF920F931F931E
:101900002F933F934F935F936F937F938F939F9307
:10191000AF93BF93CF93DF93EF93FF93A091D50243
:10192000B091D6020DB60D920EB60D920E94020431
:10193000A091D502B091D602CD91CDBFDD91DEBF91
:10194000FF91EF91DF91CF91BF91AF919F918F91D7
:101950007F916F915F914F913F912F911F910F91C7
:10196000FF90EF90DF90CF90BF90AF909F908F90BF
:101970007F906F905F904F903F902F901F900F90AF
:101980000FBE0F900895089581E090E090931A03A0
:101990008093190308950F920FB6F8940F921F9237
:1019A00011242F923F924F925F926F927F928F926B
:1019B0009F92AF92BF92CF92DF92EF92FF920F93DE
:1019C0001F932F933F934F935F936F937F938F93C7
:1019D0009F93AF93BF93CF93DF93EF93FF93A09128
:1019E000D502B091D6020DB60D920EB60D920E94A0
:1019F0000204A091D502B091D602CD91CDBFDD9168
:101A0000DEBFFF91EF91DF91CF91BF91AF919F9199
:101A10008F917F916F915F914F913F912F911F9186
:101A20000F91FF90EF90DF90CF90BF90AF909F907D
:101A30008F907F906F905F904F903F902F901F906E
:101A40000F900FBE0F90189508950C944A09CF93EC
:101A5000DF931F92CDB7DEB761E070E0CE01019653
:101A60000E94F90D8981082E000C990B0F90DF91CF
:101A7000CF910895CF93DF931F92CDB7DEB78983BF
:101A800061E070E0CE0101960E94FF0D80E090E0E1
:101A90000F90DF91CF9108950E94E80DEDE6F6E0FA
:101AA00082E291E09383828384E191E09183808359
:101AB0008DE092E00C94160F63E085E10E943602FF
:101AC0002D980895EF92FF920F931F93CF93DF937A
:101AD000EC018B010E9488017C0188819981892B0E
:101AE00041F48FEF9FEF99838883C7010E9494018F
:101AF0001FC0012B01F10091D5021091D60262E0C6
:101B0000C8010E94410488819981019641F4C8016D
:101B1000069699838883F8011782168204C0B8015B
:101B2000CE010E949A05C7010E9494010E94650C93
:101B300081E090E005C0C7010E94940180E090E040
:101B4000DF91CF911F910F91FF90EF900895EF9249
:101B5000FF920F931F93CF93DF938C010E94880114
:101B60007C01D801ED91FC91309739F0EF3FBFEF48
:101B7000FB0761F4F80111821082C701DF91CF9158
:101B80001F910F91FF90EF900C94940180819181AF
:101B9000D8018D939C93EF0126976BE0CE010E94B4
:101BA0004104F80180819181892B21F48FEF9FEF0F
:101BB00091838083CB81D0E0C7010E949401CE0144
:101BC000DF91CF911F910F91FF90EF900C94D20471
:101BD0000F931F9300E311E02DE03EE040E855E253
:101BE00060E070E080E090E00E94A2011F910F9100
:101BF0000895AB01BC0180E391E00C941F0ECF93DC
:101C0000DF93EB01AB01BC0180E090E00E94E901B1
:101C1000CE01DF91CF91089508950F931F93CF9335
:101C2000DF93EC010E94890E8C01CE0108960E9480
:101C3000A70DC801DF91CF911F910F910895CF9209
:101C4000DF92EF92FF920F931F93CF93DF93EC01FC
:101C50008B017A016C0188E0C80ED11CA701B80184
:101C6000CE010E945F0E009731F461E070E0C60182
:101C70000E94620DF3CFDF91CF911F910F91FF90E2
:101C8000EF90DF90CF900895DC018D919C9111979A
:101C900014962D913C911597A9014F5F5F4F1596B2
:101CA0005C934E9314971296ED91FC911397319794
:101CB0002E233F23FC01E20FF31F80810895CF9272
:101CC000DF92EF92FF920F931F93CF93DF937C01EC
:101CD0006A018B01EA01209781F0F70124813581A7
:101CE000868197812817390741F0C7010E94440E69
:101CF000F80181938F012197EECFC6018C1B9D0BBC
:101D0000DF91CF911F910F91FF90EF90DF90CF90D7
:101D10000895DC0116962D913C91179714964D91DC
:101D20005C91159712968D919C911397241B350BFE
:101D300028173907B9F0ED91FC91119716962D915E
:101D40003C911797A9014F5F5F4F17965C934E9395
:101D50001697019728233923E20FF31F608380E051
:101D600090E008958FEF9FEF0895A1E21A2EAA1B2D
:101D7000BB1BFD010DC0AA1FBB1FEE1FFF1FA2173B
:101D8000B307E407F50720F0A21BB30BE40BF50B38
:101D9000661F771F881F991F1A9469F760957095C1
:101DA000809590959B01AC01BD01CF0108950E94E3
:101DB000E80EA59F900DB49F900DA49F800D911DDE
:101DC00011240895EE0FFF1F0590F491E02D099462
:101DD000A29FB001B39FC001A39F700D811D11246C
:101DE000911DB29F700D811D1124911D0895FC015C
:101DF00001900020E9F7809590958E0F9F1F089520
:101E0000A0E0B0E0E6E0FFE00C94E711AE014B5F2C
:101E10005F4FFA0161917191AF0180916F069091CE
:101E200070060E94460FE2E00C9403120F931F937A
:101E3000CF93DF93E0916F06F0917006238121FF2D
:101E40001BC08C01D0E0C0E0F80181918F0160914E
:101E50006F0670917006DB011896ED91FC91199751
:101E6000882331F00995892B79F3DFEFCFEFECCFA1
:101E70008AE00995892B19F08FEF9FEF02C08D2F13
:101E80009C2FDF91CF911F910F910895ABE0B0E0AF
:101E9000ECE4FFE00C94D7116C017B018A01FC019A
:101EA00017821682838181FFCCC1CE0101963C014D
:101EB000F6019381F70193FD859193FF81917F0155
:101EC000882309F4BAC1853239F493FD859193FFD3
:101ED00081917F01853229F4B60190E00E943D1185
:101EE000E7CF912C212C312CFFE1F315D8F08B3268
:101EF00079F038F4803279F08332A1F4232D206117
:101F00001DC08D3261F0803369F4232D216016C02D
:101F1000832D8260382EE32DE4603E2E2AC0F32DFF
:101F2000F8601DC037FC2DC020ED280F2A3040F08E
:101F30008E32B9F436FC81C1232D2064322E19C0B3
:101F400036FE06C08AE0989E200D1124922E11C004
:101F5000EAE02E9E200D1124222EF32DF0623F2E5A
:101F600008C08C3621F4832D8068382E02C0883654
:101F700041F4F70193FD859193FF81917F018111D8
:101F8000B3CF982F9F7D9554933028F40C5F1F4F4B
:101F90009FE399830DC0833631F0833771F0833529
:101FA00009F059C021C0F801808189830E5F1F4F5D
:101FB00088248394912C530113C02801F2E04F0E22
:101FC000511CF801A080B18036FE03C0692D70E07D
:101FD00002C06FEF7FEFC5010E9432114C018201F8
:101FE000F32DFF773F2E16C0280122E0420E511C30
:101FF000F801A080B18036FE03C0692D70E002C0F8
:102000006FEF7FEFC5010E9427114C01F32DF0689F
:102010003F2E820133FC1BC0822D90E0881699066A
:10202000B0F4B60180E290E00E943D112A94F4CF12
:10203000F50137FC859137FE81915F01B60190E093
:102040000E943D1121102A9421E0821A91088114E6
:10205000910471F7E8C0843611F0893641F5F80132
:1020600037FE07C060817181828193810C5F1F4FB1
:1020700008C060817181072E000C880B990B0E5FE0
:102080001F4FF32DFF763F2E97FF09C09095809547
:10209000709561957F4F8F4F9F4FF0683F2E2AE0DC
:1020A00030E0A3010E947911882E861845C085373B
:1020B00031F4232D2F7EB22E2AE030E025C0932D5F
:1020C000997FB92E8F36C1F018F4883579F0B5C0F4
:1020D000803719F0883721F0B0C0E92FE061BE2EBB
:1020E000B4FE0DC0FB2DF460BF2E09C034FE0AC043
:1020F000292F2660B22E06C028E030E005C020E17E
:1021000030E002C020E132E0F801B7FE07C0608194
:102110007181828193810C5F1F4F06C06081718144
:1021200080E090E00E5F1F4FA3010E947911882E7E
:102130008618FB2DFF773F2E36FE0DC0232D2E7FF8
:10214000A22E891458F434FE0BC032FC09C0832D32
:102150008E7EA82E05C0B82CA32C03C0B82C01C0BD
:10216000B92CA4FE0FC0FE01E80DF11D8081803363
:1021700021F49A2D997EA92E09C0A2FE06C0B3941F
:10218000B39404C08A2D867809F0B394A3FC11C0DF
:10219000A0FE06C0B21488F4280C922C9B180EC026
:1021A000B21460F4B60180E290E00E943D11B39455
:1021B000F7CFB21418F42B1802C0982C212CA4FECF
:1021C00010C0B60180E390E00E943D11A2FE17C04E
:1021D000A1FC03C088E790E002C088E590E0B6016A
:1021E0000CC08A2D867859F0A1FE02C08BE201C096
:1021F00080E2A7FC8DE2B60190E00E943D118914B7
:1022000038F4B60180E390E00E943D119A94F7CF34
:102210008A94F301E80DF11D8081B60190E00E94DF
:102220003D118110F5CF222009F442CEB60180E2A3
:1022300090E00E943D112A94F6CFF60186819781A5
:1022400002C08FEF9FEF2B96E2E10C94F311FC019B
:102250000590615070400110D8F7809590958E0FD1
:102260009F1F0895FC016150704001900110D8F744
:10227000809590958E0F9F1F08950F931F93CF9376
:10228000DF93FB01238121FD03C08FEF9FEF2CC063
:1022900022FF16C04681578124813581421753079A
:1022A00044F4A081B1819D012F5F3F4F3183208392
:1022B0008C93268137812F5F3F4F3783268314C04D
:1022C0008B01EC01FB010084F185E02D0995892B40
:1022D000E1F6D80116968D919C9117970196179665
:1022E0009C938E931697CE01DF91CF911F910F9102
:1022F0000895FA01AA27283051F1203181F1E8949C
:102300006F936E7F6E5F7F4F8F4F9F4FAF4FB1E0E8
:102310003ED0B4E03CD0670F781F891F9A1FA11DE3
:10232000680F791F8A1F911DA11D6A0F711D811DE4
:10233000911DA11D20D009F468943F912AE0269FA9
:1023400011243019305D3193DEF6CF010895462F08
:102350004770405D4193B3E00FD0C9F7F6CF462FE9
:102360004F70405D4A3318F0495D31FD4052419352
:1023700002D0A9F7EACFB4E0A6959795879577950F
:102380006795BA95C9F700976105710508959B0196
:10239000AC010A2E06945795479537952795BA951F
:1023A000C9F7620F731F841F951FA01D08952F92F8
:1023B0003F924F925F926F927F928F929F92AF92D5
:1023C000BF92CF92DF92EF92FF920F931F93CF9322
:1023D000DF93CDB7DEB7CA1BDB0B0FB6F894DEBFB9
:1023E0000FBECDBF09942A88398848885F846E84DF
:1023F0007D848C849B84AA84B984C884DF80EE8029
:10240000FD800C811B81AA81B981CE0FD11D0FB631
:10241000F894DEBF0FBECDBFED010895F894FFCF55
:1024200002000D0080006F00360000000000000078
:102430000302080200000001000000000000270D58
:10244000000000000002000000003A0D0000000043
:102450002D0640000000000000004D6F74696F6E93
:102460002064657465637465642E003031323334E2
:102470003536371011121314152021222324250D6F
:102480000A00256F00256900257800252E2A6600A0
:10249000000306080A537461636B20506F696E7401
:1024A00065723A203078253034780A002A2A2A20AA
:1024B00052494F54206B65726E656C2070616E6975
:1024C000633A0A25730A0A002A2A2A2068616C7472
:1024D00065642E0A0A004641494C45442041535345
:1024E000455254494F4E2E006D61696E28293A209D
:1024F000546869732069732052494F54212028562B
:10250000657273696F6E3A20323031392E30342D56
:10251000646576656C2D3331332D676533653262C2
:10252000290A0069646C65006D61696E000C000029
:0400000300000136C2
:00000001FF
